:100000000020001071010000350200003D020000D8
:1000100000000000000000000000000000000000E0
:100020000000000000000000000000004502000089
:1000300000000000000000004D020000550200001A
:100040005D0200005D0200005D0200005D02000034
:100050005D0200005D0200005D0200005D02000024
:100060005D0200005D0200000000000000000000D2
:1000700000000000000000005D0200005D020000C2
:100080005D0200005D0200005D0200005D020000F4
:100090005D0200005D0200000000000000000000A2
:1000A0005D0200005D0200005D0200005D020000D4
:1000B0000000000000000000000000000000000040
:1000C000087E00000000001054000000087E0000C0
:1000D0000000002000000000087E0000004000201A
:1000E0000000000054000010A009000000000020E3
:1000F00000000000004000200000000080B588B033
:1001000000AFF860B9607A60BB68FB61FB68BB61F7
:1001100000237B610AE0FB691A1DFA61BA69111DAF
:10012000B96112681A607B6904337B617A697B6804
:100130009A42F0D3BD4608B080BDC04680B584B0B9
:1001400000AF786039607B68FB600023BB6007E02C
:10015000FB681A1DFA6000221A60BB680433BB609A
:10016000BA683B689A42F3D3BD4604B080BDC0462E
:1001700080B586B000AF284B3B613B691B68C0224D
:1001800012051A433B691A60244B7B6116E07B69B8
:100190001A1D7A611B68FB607B691A1D7A611B68F6
:1001A000BB607B691A1D7A611B687B60F968BA685D
:1001B0007B68081C111C1A1CFFF7A0FF7A69184BFA
:1001C0009A42E4D30FE07B691A1D7A611B68BB6019
:1001D0007B691A1D7A611B687B60BA687B68101C9A
:1001E000191CFFF7ABFF7A690E4B9A42EBD30E4B0B
:1001F0001B6810331B683B603B681B681A1C0B4B69
:100200001A603B6804331B681A1C094B1A6003F020
:1002100079FE04F065FFFEE780800440C000000026
:10022000E4000000FC000000F81FFF1FA008001001
:100230009C08001080B500AFFEE7C04680B500AF57
:10024000FEE7C04680B500AFFEE7C04680B500AF10
:10025000FEE7C04680B500AFFEE7C04680B500AF00
:10026000FEE7C046FFFFFFFFFFFFFFFFFFFFFFFFAF
:10027000FFFFFFFFFFFFFFFFFFFFFFFFFFFFFFFF8E
:10028000FFFFFFFFFFFFFFFFFFFFFFFFFFFFFFFF7E
:10029000FFFFFFFFFFFFFFFFFFFFFFFFFFFFFFFF6E
:1002A000FFFFFFFFFFFFFFFFFFFFFFFFFFFFFFFF5E
:1002B000FFFFFFFFFFFFFFFFFFFFFFFFFFFFFFFF4E
:1002C000FFFFFFFFFFFFFFFFFFFFFFFFFFFFFFFF3E
:1002D000FFFFFFFFFFFFFFFFFFFFFFFFFFFFFFFF2E
:1002E000FFFFFFFFFFFFFFFFFFFFFFFFFFFFFFFF1E
:1002F000FFFFFFFFFFFFFFFFFFFFFFFFFFFFFFFF0E
:1003000080B500AFF0231A010B4B101C191C0422FE
:1003100001F024FEA023DA00084B101C191C042253
:1003200001F01CFE80235A00054B101C191C0422EE
:1003300001F014FEBD4680BD5800001060000010A2
:100340005C00001080B500AF0020802101F024FD8A
:10035000002001F0BFFCFFF7D3FF90231A01044BEC
:10036000101C191C062201F0F9FDBD4680BDC046D7
:100370000000001080B500AF0020802101F00CFDCE
:10038000002001F0A7FC90231A01044B101C191C3B
:10039000062201F0E3FDBD4680BDC046000000100E
:1003A00080B584B000AF90231A013B1C101C191CAF
:1003B000062201F055FD854B1B6801221A70834B04
:1003C0001B6801225A70814B1B6806229A707F4B72
:1003D0001B680022DA707D4B1B680433BB607C4BCA
:1003E0001B681B0EDAB2BB681A70BB685A1C784BCC
:1003F0001968FF231B040B401B0CDBB21370BB6896
:100400009A1C734B1968FF231B020B401B0ADBB2BB
:100410001370BB68DA1C6E4B1B68DBB213706B4B3E
:100420001B6800221A81694B1B680A33BB60BB68DA
:1004300080221A70BB68013300221A70634B1B685C
:1004400000221A73614B1B6800225A735F4B1B68B2
:1004500000229A735D4B1B680022DA735B4B1B68AA
:1004600000221A74594B1B6800225A74574B1B68A0
:1004700000229A74554B1B680022DA74534B1B6898
:1004800000221A75514B1B6800225A754F4B1B688E
:1004900000229A754D4B1B680022DA754B4B1B6886
:1004A00000221A76494B1B6800225A76474B1B687C
:1004B00000229A76454B1B680022DA76434B1B6874
:1004C000444A12781A77414B1B68424A52785A774D
:1004D0003E4B1B683F4A92789A773C4B1B683D4ADB
:1004E000D278DA77394B1A683A4B19792023D154EC
:1004F000364B1A68374B59792123D1543B1C0F33A3
:1005000006221A700EE0314B1A683B1C0F331B7821
:10051000D31800221A773B1C0F331A783B1C0F3379
:1005200001321A703B1C0F331B780F2BEBD93B1C8D
:100530000F3300221A7010E0244B19683B1C0F3354
:100540001A7828238A18D31800221A713B1C0F33FB
:100550001A783B1C0F3301321A703B1C0F331B7887
:100560003F2BE9D93B1C0F3300221A7010E0174BC8
:1005700019683B1C0F331A7868238A18D318002295
:100580001A713B1C0F331A783B1C0F3301321A705F
:100590003B1C0F331B785BB2002BE8DA0B4B1A685D
:1005A000EC236321D154094B1A68ED238221D154E5
:1005B000064B1A68EE235321D154044B1A68EF23DB
:1005C0006321D154BD4604B080BDC04698000010E0
:1005D000900000100000001090B585B002AF3B1DE8
:1005E00000221A80FFF7DCFE3B1D04221A80C94B53
:1005F00019683B1D1B883A1D581C10801A1CE823E3
:100600008A18D31835221A71C24B19683B1D1B88F2
:100610003A1D581C10801A1CE8238A18D31801228E
:100620001A71BC4B19683B1D1B883A1D581C108061
:100630001A1CE8238A18D31801221A71B54B1968BD
:100640003B1D1B883A1D581C10801A1CE8238A1871
:10065000D3183D221A71AF4B19683B1D1B883A1DF8
:10066000581C10801A1CE8238A18D31807221A7104
:10067000A84B19683B1D1B883A1D581C10801A1C7A
:10068000E8238A18D31801221A71A24B18683B1D5F
:100690001B883A1D591C1180191C9F4B1A78E8239E
:1006A0004118CB181A719B4B18683B1D1B883A1DCB
:1006B000591C1180191C984B5A78E8234118CB1803
:1006C0001A71944B18683B1D1B883A1D591C1180E8
:1006D000191C914B9A78E8234118CB181A718D4B4D
:1006E00018683B1D1B883A1D591C1180191C8A4B28
:1006F000DA78E8234118CB181A71864B18683B1D2D
:100700001B883A1D591C1180191C834B1A79E82348
:100710004118CB181A717F4B18683B1D1B883A1D76
:10072000591C1180191C7C4B5A79E8234118CB18AD
:100730001A71784B19683B1D1B883A1D581C108094
:100740001A1CE8238A18D3180C221A71714B1968E5
:100750003B1D1B883A1D581C10801A1CE8238A1860
:10076000D31800221A71BB1D00221A8014E0694BB5
:1007700018683B1D1B883A1D591C1180191CBB1D94
:100780001B88664AD25CE8234118CB181A71BB1D3E
:100790001A88BB1D01321A80BB1D1B885F4AD35CBF
:1007A000002BE4D15B4B18683B1D1B883A1D591C7C
:1007B0001180191C584BDA78E8234118CB181A71AC
:1007C000544B18683B1D1B883A1D591C1180191C7D
:1007D000514B1A79E8234118CB181A714D4B186800
:1007E0003B1D1B883A1D591C1180191C4A4B5A7914
:1007F000E8234118CB181A71464B18683B1D1A881C
:10080000BB1D1B8804214942CB1AD118BB1D1B8874
:10081000DBB20333DAB2E8234118CB181A713D4B2F
:1008200019683B1D1B883A1D581C10801A1CE823B0
:100830008A18D31837221A71364B19683B1D1B884A
:100840003A1D581C10801A1CE8238A18D318062257
:100850001A71304B19683B1D1B883A1D581C1080BB
:100860001A1CE8238A18D31801221A71294B196817
:100870003B1D1B883A1D581C10801A1CE8238A183F
:10088000D31803221A71234B19683B1D1B883A1D8C
:10089000581C10801A1CE8238A18D31806221A71D3
:1008A0001C4B19683B1D1B883A1D581C10801A1CD4
:1008B000E8238A18D3180F221A71164B19683B1DAA
:1008C0001B883A1D581C10801A1CE8238A18D3185C
:1008D0003A221A710F4B19683B1D1B883A1D581C90
:1008E00010801A1CE8238A18D3183B221A71094B6E
:1008F00019683B1D1B883A1D581C10801A1CE823E0
:100900008A18D318FF221A71BB1D3A1D12881A804B
:1009100014E0C04698000010000000101400001001
:10092000164B1968BB1D1A88E8238A18D3180022B1
:100930001A71BB1D1A88BB1D01321A80BB1D1A8893
:100940003823FF339A42EBD93B1CFF221A703B1C21
:10095000FF225A703B1CFF229A703B1CFF22DA7068
:10096000074B1878054B196889239A003B1C4324D0
:10097000009401F043FFBD4603B090BD9800001005
:100980000800001090B587B002AF3B1C0A3300226C
:100990001A80FFF705FD1D4B1B785BB2032B04D0BB
:1009A0001A4B1B785BB2042B38D1194B1B680A33E6
:1009B00000221A70164B1B680A33013300221A708A
:1009C000134B1B68134A12781A73114B1B68114A98
:1009D00052785A730E4B1B680E4A92789A730C4BDE
:1009E0001B680C4AD278DA730B4B1A783B1D1A70CD
:1009F000094B5A783B1D5A70074B9A783B1D9A70E9
:100A0000054BDA783B1DDA7014E0C0466800001030
:100A10009800001058000010940000103B1DFF22A9
:100A20001A703B1DFF225A703B1DFF229A703B1D1E
:100A3000FF22DA703B1C0A3304221A80CD4B19685E
:100A40003B1C0A331B883A1C0A32581C10801A1CA3
:100A5000E8238A18D31835221A71C64B19683B1C33
:100A60000A331B883A1C0A32581C10801A1CE823CF
:100A70008A18D31801221A71BE4B19683B1C0A331D
:100A80001B883A1C0A32581C10801A1CE8238A184A
:100A9000D31803221A71B74B19683B1C0A331B8801
:100AA0003A1C0A32581C10801A1CE8238A18D318E2
:100AB0003D221A71AF4B19683B1C0A331B883A1C44
:100AC0000A32581C10801A1CE8238A18D3180722EF
:100AD0001A71A84B19683B1C0A331B883A1C0A324E
:100AE000581C10801A1CE8238A18D31801221A7186
:100AF000A04B18683B1C0A331B883A1C0A32591C4D
:100B00001180191C9C4B1A78E8234118CB181A71D4
:100B1000984B18683B1C0A331B883A1C0A32591C34
:100B20001180191C944B5A78E8234118CB181A717C
:100B3000904B18683B1C0A331B883A1C0A32591C1C
:100B40001180191C8C4B9A78E8234118CB181A7124
:100B5000884B18683B1C0A331B883A1C0A32591C04
:100B60001180191C844BDA78E8234118CB181A71CC
:100B7000804B18683B1C0A331B883A1C0A32591CEC
:100B80001180191C7C4B1A79E8234118CB181A7173
:100B9000784B18683B1C0A331B883A1C0A32591CD4
:100BA0001180191C744B5A79E8234118CB181A711B
:100BB0003B1DDB78FF2B00D0BBE06E4B19683B1C64
:100BC0000A331B883A1C0A32581C10801A1CE8236E
:100BD0008A18D31832221A71664B19683B1C0A33E3
:100BE0001B883A1C0A32581C10801A1CE8238A18E9
:100BF000D31804221A715F4B18683B1C0A331B88F8
:100C00003A1C0A32591C1180191C5C4B1A78E823D3
:100C10004118CB181A71574B18683B1C0A331B88B4
:100C20003A1C0A32591C1180191C544B5A78E8237B
:100C30004118CB181A714F4B18683B1C0A331B889C
:100C40003A1C0A32591C1180191C4C4B9A78E82323
:100C50004118CB181A71474B18683B1C0A331B8884
:100C60003A1C0A32591C1180191C444BDA78E823CB
:100C70004118CB181A713F4B19683B1C0A331B886B
:100C80003A1C0A32581C10801A1CE8238A18D31800
:100C900036221A71374B19683B1C0A331B883A1CE1
:100CA0000A32581C10801A1CE8238A18D318042210
:100CB0001A71304B18683B1C0A331B883A1C0A32E5
:100CC000591C1180191C2E4B1A78E8234118CB1897
:100CD0001A71284B18683B1C0A331B883A1C0A32CD
:100CE000591C1180191C264B5A78E8234118CB183F
:100CF0001A71204B18683B1C0A331B883A1C0A32B5
:100D0000591C1180191C1E4B9A78E8234118CB18E6
:100D10001A71184B18683B1C0A331B883A1C0A329C
:100D2000591C1180191C164BDA78E8234118CB188E
:100D30001A71104B19683B1C0A331B883A1C0A3283
:100D4000581C10801A1CE8238A18D3180C221A7118
:100D5000084B19683B1C0A331B883A1C0A32581C82
:100D600010801A1CE8238A18D31800221A71002355
:100D7000FB601CE0980000100000001058000010FC
:100D800094000010924B18683B1C0A331B883A1CD5
:100D90000A32591C1180191C8E4AFB68D3181A7824
:100DA000E8234118CB181A71FB680133FB60894AAC
:100DB000FB68D3181B78002BE4D1854B18683B1CCB
:100DC0000A331B883A1C0A32591C1180191C824BA9
:100DD000DA78E8234118CB181A717D4B18683B1C50
:100DE0000A331B883A1C0A32591C1180191C7A4B91
:100DF0001A79E8234118CB181A71754B18683B1CF7
:100E00000A331B883A1C0A32591C1180191C724B78
:100E10005A79E8234118CB181A716D4B18683B1C9E
:100E20000A331A88FB6804214942CB1AD118FB689F
:100E3000DBB20333DAB2E8234118CB181A71644BE2
:100E400019683B1C0A331B883A1C0A32581C108054
:100E50001A1CE8238A18D31837221A715C4B1968B8
:100E60003B1C0A331B883A1C0A32581C10801A1C7F
:100E7000E8238A18D31808221A71554B19683B1CAD
:100E80000A331B883A1C0A32581C10801A1CE823AB
:100E90008A18D31801221A714D4B19683B1C0A336A
:100EA0001B883A1C0A32581C10801A1CE8238A1826
:100EB000D31803221A71464B19683B1C0A331B884E
:100EC0003A1C0A32581C10801A1CE8238A18D318BE
:100ED00006221A713E4B19683B1C0A331B883A1CC8
:100EE0000A32581C10801A1CE8238A18D3180F22C3
:100EF0001A71374B19683B1C0A331B883A1C0A329B
:100F0000581C10801A1CE8238A18D3183A221A7128
:100F10002F4B19683B1C0A331B883A1C0A32581C99
:100F200010801A1CE8238A18D3183B221A71284B08
:100F300019683B1C0A331B883A1C0A32581C108063
:100F40001A1CE8238A18D3181F221A71204B19681B
:100F50003B1C0A331B883A1C0A32581C10801A1C8E
:100F6000E8238A18D31821221A71194B19683B1CDF
:100F70000A331B883A1C0A32581C10801A1CE823BA
:100F80008A18D318FF221A713B1C0A331B88FB6096
:100F90000AE00F4B1968E823FA688A18D318002270
:100FA0001A71FB680133FB60FA683823FF339A42F9
:100FB000EFDD0A4B1878064B196889239A003B1D10
:100FC0004324009401F01AFCBD4605B090BDC04614
:100FD000980000101400001000000010080000101D
:100FE00090B587B002AF3B1C0A3300221A80FFF78E
:100FF000D7F93B1C0A3304221A80DF4B1B680A33E3
:1010000000221A70DC4B1B680A33013300221A706D
:10101000D94B19683B1C0A331B883A1C0A32581CEE
:1010200010801A1CE8238A18D31835221A71D24B63
:1010300019683B1C0A331B883A1C0A32581C108062
:101040001A1CE8238A18D31801221A71CA4B19688E
:101050003B1C0A331B883A1C0A32581C10801A1C8D
:10106000E8238A18D31804221A71C34B19683B1C51
:101070000A331B883A1C0A32581C10801A1CE823B9
:101080008A18D3183D221A71BB4B19683B1C0A33CE
:101090001B883A1C0A32581C10801A1CE8238A1834
:1010A000D31807221A71B44B19683B1C0A331B88EA
:1010B0003A1C0A32581C10801A1CE8238A18D318CC
:1010C00001221A71AC4B18683B1C0A331B883A1C6E
:1010D0000A32591C1180191CA84B1A78E8234118B0
:1010E000CB181A71A44B18683B1C0A331B883A1C96
:1010F0000A32591C1180191CA04B5A78E823411858
:10110000CB181A719C4B18683B1C0A331B883A1C7D
:101110000A32591C1180191C984B9A78E8234118FF
:10112000CB181A71944B18683B1C0A331B883A1C65
:101130000A32591C1180191C904BDA78E8234118A7
:10114000CB181A718C4B18683B1C0A331B883A1C4D
:101150000A32591C1180191C884B1A79E82341184E
:10116000CB181A71844B18683B1C0A331B883A1C35
:101170000A32591C1180191C804B5A79E8234118F6
:10118000CB181A717C4B19683B1C0A331B883A1C1C
:101190000A32581C10801A1CE8238A18D3183222ED
:1011A0001A71754B19683B1C0A331B883A1C0A32AA
:1011B000581C10801A1CE8238A18D31804221A71AC
:1011C0006D4B18683B1C0A331B883A1C0A32591CA9
:1011D0001180191C6A4B1A78E8234118CB181A7130
:1011E000654B18683B1C0A331B883A1C0A32591C91
:1011F0001180191C624B5A78E8234118CB181A71D8
:101200005D4B18683B1C0A331B883A1C0A32591C78
:101210001180191C5A4B9A78E8234118CB181A717F
:10122000554B18683B1C0A331B883A1C0A32591C60
:101230001180191C524BDA78E8234118CB181A7127
:101240004D4B19683B1C0A331B883A1C0A32581C48
:1012500010801A1CE8238A18D31836221A71464BBC
:1012600019683B1C0A331B883A1C0A32581C108030
:101270001A1CE8238A18D31804221A713E4B1868E6
:101280003B1C0A331B883A1C0A32591C1180191C5A
:101290003C4B1A78E8234118CB181A71364B186862
:1012A0003B1C0A331B883A1C0A32591C1180191C3A
:1012B000344B5A78E8234118CB181A712E4B186812
:1012C0003B1C0A331B883A1C0A32591C1180191C1A
:1012D0002C4B9A78E8234118CB181A71264B1868C2
:1012E0003B1C0A331B883A1C0A32591C1180191CFA
:1012F000244BDA78E8234118CB181A711E4B196871
:101300003B1C0A331B883A1C0A32581C10801A1CDA
:10131000E8238A18D318FF221A713B1C0A331B8852
:10132000FB600AE0144B1968E823FA688A18D3189E
:1013300000221A71FB680133FB60FA683823FF331F
:101340009A42EFDD3B1DFF221A703B1DFF225A70AF
:101350003B1DFF229A703B1DFF22DA700A4B187862
:10136000054B196889239A003B1D4324009401F022
:1013700045FABD4605B090BD980000100000001071
:1013800058000010940000100800001090B589B0BB
:1013900002AFD44B1B783C1C1034181C00F0CAFE62
:1013A000031C23803B1C10331B88002B15D0CD4B16
:1013B0001878CD4B19683B1C10331A883B1DBC1C98
:1013C000009401F09DFB021C3B1C10331A80BB1CD7
:1013D0001B88432B00D07DE101E000237DE1C24B5F
:1013E0001B681A7FC14B1B789A4224D1BE4B1B68E5
:1013F0005A7FBE4B5B789A421DD1BB4B1B689A7FCC
:10140000BA4B9B789A4216D1B74B1B68DA7FB74B21
:10141000DB789A420FD1B44B1A682023D25CB34BCD
:101420001B799A4207D1B04B1A682123D25CAF4B8B
:101430005B799A4201D000234FE13B1C1333002219
:101440001A70A94B1B687B617B69F0337B613B1C85
:1014500010331B88F03B7A69D318FB6035E17B6958
:101460001B78062B00D18AE006DC012B32D0032B3F
:1014700055D0002B16D011E1352B1DD003DC332BBA
:1014800000D1ACE00AE1362B00D1DEE0FF2B00D02A
:1014900004E1FB687B613B1C13333A1C1332127866
:1014A0001A7012E17B6901337B613B1C13333A1CD8
:1014B000133212781A7008E17B6901337B617B6912
:1014C00001337B617B695A1C7A613A1C13321B78A9
:1014D0001370FAE07B6901337B617B6901337B61C7
:1014E0007B695A1C7A611A78814B1A707B695A1C85
:1014F0007A611A787E4B5A707B695A1C7A611A7825
:101500007B4B9A707B695A1C7A611A78784BDA7037
:101510003B1C13333A1C133212781A70D5E07B69E6
:1015200001337B617B695A1C7A613A1C0B321B7850
:1015300013707B695A1C7A611A786E4B1A707B693A
:101540005A1C7A611A786B4B5A707B695A1C7A6103
:101550001A78684B9A707B695A1C7A611A78654BC5
:10156000DA703B1C0B331B78043B7A69D3187B6120
:101570003B1C13333A1C133212781A70A5E07B69B6
:1015800001337B617B695A1C7A613A1C0B321B78F0
:1015900013707B695A1C7A611A78574B1A707B69F1
:1015A0005A1C7A611A78544B5A707B695A1C7A61BA
:1015B0001A78514B9A707B695A1C7A611A784E4B93
:1015C000DA703B1C0B331B78043B7A69D3187B61C0
:1015D0003B1C13333A1C133212781A7075E07B6986
:1015E00001337B617B695A1C7A613A1C0B321B7890
:1015F00013707B695A1C7A611B781A1C3F4B1A6066
:101600003E4B1B681A027B69591C79611B78D21802
:101610003A4B1A60394B1B681A027B69591C796175
:101620001B78D218354B1A60344B1B681A027B6941
:10163000591C79611B78D218304B1A603B1C13334C
:101640003A1C133212781A703FE07B6901337B61D8
:101650007B695A1C7A613A1C0B321B7813707B69C8
:101660005A1C7A611A78264B1A707B695A1C7A6167
:101670001A78234B5A707B695A1C7A611A78204B6E
:101680009A707B695A1C7A611A781D4BDA703B1C80
:1016900013333A1C133212781A7016E07B69013347
:1016A0007B617B695A1C7A613A1C0B321B78137080
:1016B0003B1C0B331B787A69D3187B613B1C1333BB
:1016C0003A1C133212781A70C0467A69FB689A4243
:1016D00000D2C4E63B1C13331B785BB2181CBD461A
:1016E00007B090BD08000010980000100000001026
:1016F000600000105C000010640000100C0000107E
:101700009400001090B583B000AF844B1B785BB29F
:10171000062B01D10523FCE0814B1B789B00013394
:10172000DB00C02292009B18181C00F0D3FA031CA7
:10173000222B07D07A4B1B78181C0221442200234D
:1017400000F0B2FEFB1D01221A70FFF71FFE031C02
:101750001A1CBB1D1A70714B1B785BB2042B00D98D
:10176000D4E09A006F4BD3181B689F466E4B002243
:101770001A706D4B00225A706B4B00229A706A4BA4
:101780000022DA70FEF728FF644B01221A70BEE0D7
:10179000BB1D1B78022B19D1644B1B681A7C624B52
:1017A0001A70624B1B685A7C5F4B5A705F4B1B6808
:1017B0009A7C5D4B9A705D4B1B68DA7C5A4BDA70F1
:1017C000FFF7E0F8554B02221A70A0E0FC1D00F074
:1017D000CFF8031C23709AE0BB1D1B78052B16D194
:1017E00000F022F9031C002B08D0514B1B689847CE
:1017F00000F0ECF9494B03221A7018E000F0E6F90A
:101800004C4B1B689847454B00221A707FE0BB1D6C
:101810001B78062B05D100F0D9F9404B01221A7034
:1018200005E0FC1D00F0A4F8031C23706FE06EE0DF
:10183000FB1D04221A70404B1B68013326D03E4B1F
:101840001B685A083D4B1B689A421FD2BB1D0022E1
:101850001A70354B1A783A4B1A70334B5A78384B0A
:101860005A70314B9A78364B9A702F4BDA78344B4A
:10187000DA70344B1B685A1C324B1A60FFF782F83F
:1018800000F0A4F9254B04221A7040E03FE0FB1D54
:1018900004221A70BB1D1B78052B26D12A4B00226F
:1018A0001A70274B1A78204B1B789A4211D1244B7F
:1018B0005A781D4B5B789A420BD1214B9A781A4B80
:1018C0009B789A4205D11E4BDA78174BDB789A4207
:1018D00005D0FB1D03221A701C4B1B68984700F0B3
:1018E00075F90E4B03221A700FE0BB1D1B78062BF7
:1018F00005D100F06BF9094B01221A7005E0FC1DBF
:1019000000F036F8031C237001E000E0C046FB1D28
:101910001B78181CBD4603B090BDC046680000107F
:1019200008000010007B0000580000109800001014
:101930001C000010240000100C0000106C000010AF
:1019400054000010900000106900001020000010EA
:1019500080B500AF044B1B78181C00F0D3FE034B7E
:1019600006221A70BD4680BD0800001068000010F5
:1019700080B582B000AFFB1D01221A70264B1B7888
:101980005BB2012B29DC254B1A68254B1B689A4258
:101990003CD2244B1B785BB2022B07D0042B08D01F
:1019A000012B00D008E0FEF717FE05E0FEF7EAFF86
:1019B00002E0FEF7E7FFC046194B00221A60184B01
:1019C0001B681A1C0A32154B1A60134B1B78DBB2CA
:1019D0000133DAB2104B1A7018E0124B1B785BB26D
:1019E000022B0BD0042B09D0012B00D00CE00D4BA7
:1019F00000221A70FB1D00221A7005E0FEF7ECFDB4
:101A0000084B01221A70C04600F0E0F8FB1D1B785D
:101A1000181CBD4602B080BD690000101000001007
:101A20006C0000106800001090B585B002AFFC1D7E
:101A3000D8235B01181C00F04DF9031C2370D82338
:101A40005B01181C032100F0A7F9164B1978164A00
:101A5000164B17480090081C111C112200F0CEFEF6
:101A6000031C3B60D8235A01FB1D1B78101C191C5A
:101A700000F092F93B681A1C0D3201D101230CE0F1
:101A8000FFF7AEFA0B4B1B683B60C046094B1A6868
:101A90003B68D31A012BF9D900235BB2181CBD4651
:101AA00003B090BD08000010147B00005800001027
:101AB000881300006C00001080B584B000AF021CD9
:101AC0003960FB1D1A703B1C0C3300221A703B1C42
:101AD0000C3300225A703B1C0C3300229A703B1CC2
:101AE0000C330022DA7090231A01324B101C191C9F
:101AF000062200F0B5F92F4B1A782E4B5B78134372
:101B0000DAB22C4B9B781343DAB22A4BDB781343BF
:101B1000DAB2284B1B791343DAB2264B5B791343B5
:101B2000DBB2002B19D1234B00221A70214B082263
:101B30005A70204BDC229A701E4B0022DA701D4B2B
:101B400000221A711B4B00225A7190231A01194B63
:101B5000101C191C062200F001FA174BFA1D12780E
:101B60001A70164B3A681A60154B164A1A60F02321
:101B70001A013B1C0C33101C191C042200F0EEF956
:101B8000F0231A013B1C0C33101C191C042200F01A
:101B9000E5F980235A003B1C0C33101C191C04224D
:101BA00000F0DCF900F012F8074B00221A70BD4675
:101BB00004B080BD00000010080000109800001064
:101BC00090000010785634126800001080B500AF05
:101BD000054B00221A60054B0A221A60044B0022B2
:101BE0001A70BD4680BDC0466C0000101000001089
:101BF0006900001080B582B000AF78600A4B1A7897
:101C00007B681A707B680133074A52781A707B68C8
:101C10000233054A92781A707B680333024AD278FD
:101C20001A70BD4602B080BD5800001080B582B069
:101C300000AF78600A4B1A787B681A707B680133B2
:101C4000074A52781A707B680233054A92781A70F4
:101C50007B680333024AD2781A70BD4602B080BD59
:101C60005C00001080B582B000AF78600A4B1A7833
:101C70007B681A707B680133074A52781A707B6858
:101C80000233054A92781A707B680333024AD2788D
:101C90001A70BD4602B080BD6000001080B582B0F1
:101CA00000AF78600A4B1A787B681A707B68013342
:101CB000074A52781A707B680233054A92781A7084
:101CC0007B680333024AD2781A70BD4602B080BDE9
:101CD0006400001090B585B000AF78602D4B9B6814
:101CE00098472C4B1B6998472A4B1B6A002B03D043
:101CF000284B5B6A002B1AD1264BDB697968FF22DF
:101D000012040A40120CD2B2101C9847214BDB6916
:101D10007968FF2212020A40120AD2B2101C9847B8
:101D20001C4BDB697A68D2B2101C98471DE07A68B8
:101D3000FF231B0413401B0CDAB23B1C0C331A703C
:101D40007A68FF231B0213401B0ADAB23B1C0C33D8
:101D50005A707B68DAB23B1C0C339A700D4B5B6A8D
:101D60003A1C0C32101C032198470A4B9B693C1CFF
:101D70000F349847031C2370064B5B699847054B4B
:101D8000DB6898473B1C0F331B78181CBD4605B019
:101D900090BDC0462C00001080B584B000AF7860C4
:101DA0000A1CFB1C1A702D4B9B6898472B4B1B6918
:101DB00098477B68042213437B60284B5B6A002BA7
:101DC00020D1264BDB697968FF2212040A40120CED
:101DD000D2B2101C9847214BDB697968FF221202AE
:101DE0000A40120AD2B2101C98471C4BDB697A6871
:101DF000D2B2101C9847194BDB69FA1C1278101CE0
:101E0000984722E07A68FF231B0413401B0CDAB2C8
:101E10003B1C0C331A707A68FF231B0213401B0A09
:101E2000DAB23B1C0C335A707B68DAB23B1C0C33C1
:101E30009A703B1C0C33FA1C1278DA70074B5B6A01
:101E40003A1C0C32101C04219847044B5B699847DC
:101E5000024BDB689847BD4604B080BD2C000010E3
:101E600090B587B000AFF860B960BB1D1A803A4BDF
:101E70009B689847384B1B699847374B1B6A002B68
:101E800003D0354B5B6A002B37D1334BDB69F968E4
:101E9000FF2212040A40120CD2B2101C98472E4B9B
:101EA000DB69F968FF2212020A40120AD2B2101C42
:101EB0009847294BDB69FA68D2B2101C98473B1C43
:101EC000163300221A8010E03B1C16331B88BA68B8
:101ED000D418214B9B699847031C23703B1C163375
:101EE0001A883B1C163301321A803A1C1632BB1D6D
:101EF00012881B889A42E7D325E0FA68FF231B0467
:101F000013401B0CDAB23B1C10331A70FA68FF2323
:101F10001B0213401B0ADAB23B1C10335A70FB68D9
:101F2000DAB23B1C10339A700B4B5B6A3A1C1032CE
:101F3000101C03219847084B1B6AB968BA1D128808
:101F4000081C111C9847044B5B699847024BDB68DF
:101F50009847BD4607B090BD2C00001080B586B0F4
:101F600000AFF860B960BB1D1A803A4B9B68984778
:101F7000384B1B699847FB6804221343FB60354BC1
:101F80005B6A002B37D1334BDB69F968FF221204FF
:101F90000A40120CD2B2101C98472E4BDB69F9682C
:101FA000FF2212020A40120AD2B2101C9847294B93
:101FB000DB69FA68D2B2101C98473B1C163300222A
:101FC0001A8010E0234BDB693A1C16321288B9687C
:101FD0008A181278101C98473B1C16331A883B1C31
:101FE000163301321A803A1C1632BB1D12881B8828
:101FF0009A42E7D325E0FA68FF231B0413401B0C29
:10200000DAB23B1C10331A70FA68FF231B0213402C
:102010001B0ADAB23B1C10335A70FB68DAB23B1C65
:1020200010339A700B4B5B6A3A1C1032101C032160
:102030009847084B5B6AB968BA1D1288081C111CC6
:102040009847044B5B699847024BDB689847BD464D
:1020500006B080BD2C00001090B585B000AF021C0A
:10206000FB1D1A703B1C0E3300221A803B1C0C33E4
:1020700000221A80FB1D1B789B000133DB008022AD
:1020800092019B18181CFFF725FE031C1A1C3B1C11
:102090000C331A803B1C0C331B881B029CB2FB1DAB
:1020A0001B789B000133DB00842292019B18181CD3
:1020B000FFF710FE031C1A1C3B1C0C33A2181A80DD
:1020C0003B1C0C331B88002B25D0FB1D1B789B0071
:1020D0000133DB00802292019B18181CFFF7FAFDE8
:1020E000031C1A1C3B1C0E331A803B1C0E331B882E
:1020F0001B029CB2FB1D1B789B000133DB0084227A
:1021000092019B18181CFFF7E5FD031C1A1C3B1CD1
:102110000E33A2181A803A1C0E323B1C0C33128864
:102120001B889A42A6D13B1C0E331B88181CBD4647
:1021300005B090BD90B585B000AF021CFB1D1A70B4
:102140003B1C0E3300221A803B1C0C3300221A80E9
:10215000FB1D1B789B000133DB00982292019B182A
:10216000181CFFF7B7FD031C1A1C3B1C0C331A800C
:102170003B1C0C331B881B029CB2FB1D1B789B0075
:102180000133DB009C2292019B18181CFFF7A2FD73
:10219000031C1A1C3B1C0C33A2181A803B1C0C336A
:1021A0001B88002B25D0FB1D1B789B000133DB0017
:1021B000982292019B18181CFFF78CFD031C1A1C17
:1021C0003B1C0E331A803B1C0E331B881B029CB237
:1021D000FB1D1B789B000133DB009C2292019B18A6
:1021E000181CFFF777FD031C1A1C3B1C0E33A218AA
:1021F0001A803A1C0E323B1C0C3312881B889A4200
:10220000A6D13B1C0E331B88181CBD4605B090BDE3
:1022100090B585B000AF3960FB1D011C19703B1DE6
:102220001A803B1C0E3300221A800023BB603B1D2A
:102230001B88002B00D15FE0FB1D1B789B00013346
:10224000DB00902292019B18181CFFF743FD031C32
:102250001B029CB2FB1D1B789B000133DB00942208
:1022600092019B18181CFFF735FD031C1A1C3B1C20
:102270000E33A2181A803B1C0E331B881A02FB1D5A
:102280001B789B000233DB00D318BB60B9683A6847
:102290003B1D1B88081C111C1A1CFFF75FFE3B1C12
:1022A0000E33391C0E313A1D098812888A181A809B
:1022B000FB1D1B789B000133DB00902292019B18D1
:1022C0001A1C3B1C0E331B881B0A9BB2DBB2101C72
:1022D000191CFFF761FDFB1D1B789B000133DB0020
:1022E000942292019B181A1C3B1C0E331B88DBB2F4
:1022F000101C191CFFF750FDBD4605B090BDC0462F
:1023000090B585B000AF3960FB1D011C19703B1DF5
:102310001A803B1C0E3300221A800023BB603B1D39
:102320001B88002B00D15FE0FB1D1B789B00013355
:10233000DB00A02292019B18181CFFF7CBFC031CAA
:102340001B029CB2FB1D1B789B000133DB00A42207
:1023500092019B18181CFFF7BDFC031C1A1C3B1CA8
:102360000E33A2181A803B1C0E331B881A02FB1D69
:102370001B789B000333DB00D318BB60B9683A6855
:102380003B1D1B88081C111C1A1CFFF769FD3B1C18
:102390000E33391C0E313A1D098812888A181A80AA
:1023A000FB1D1B789B000133DB00A02292019B18D0
:1023B0001A1C3B1C0E331B881B0A9BB2DBB2101C81
:1023C000191CFFF7E9FCFB1D1B789B000133DB00A8
:1023D000A42292019B181A1C3B1C0E331B88DBB2F3
:1023E000101C191CFFF7D8FCBD4605B090BDC046B7
:1023F00090B585B000AF0A1CFB1D011C19703B1D78
:102400001A803B1C0E3300221A80FB1D1B789B0098
:102410000133DB00A02292019B18181CFFF75AFC25
:10242000031C1B029CB2FB1D1B789B000133DB00CD
:10243000A42292019B18181CFFF74CFC031C1A1CC9
:102440003B1C0E33A2181A803B1C0E33391C0E3174
:102450003A1D098812888A181A80FB1D1B789B0078
:102460000133DB00A02292019B181A1C3B1C0E3387
:102470001B881B0A9BB2DBB2101C191CFFF78CFCDB
:10248000FB1D1B789B000133DB00A42292019B18EB
:102490001A1C3B1C0E331B88DBB2101C191CFFF7E7
:1024A0007BFCBD4605B090BD90B585B000AF041C67
:1024B000081C111C1A1CFB1D1C70BB1D18703B1D39
:1024C0001980FB1C1A70FB1D1B78082B01D9FF23F8
:1024D00004E1BB1D1B78022B14D0042B12D0012B5E
:1024E0000ED1F0231A013B1C0C33101C191C0422C2
:1024F000FFF7B6FCFB68002B01D1FD23EEE001E005
:10250000FB23EBE0C046FB1C1A780423134001D0E8
:10251000FA23E3E0FB1C1B78002B27D0BB1D1B78A4
:10252000012B02D0022B08D020E0FB1C1A782123BB
:10253000134001D1FA23D1E018E0FB1C1A782023C4
:10254000134006D0FB1C1B785BB2002B01DBFA2387
:10255000C4E0FB1C1A781023134006D0FB1C1B7828
:102560005BB2002B01DBFA23B8E0C046FB1D1B78F1
:10257000181C00F0C7F8FB1D1B789B000133DB0023
:102580001A1CFB1C1B780F218B43D9B2BB1D1B7877
:102590000B43DBB2DBB2101C191CFFF7FDFB3B1D2C
:1025A0001B88002B0FD1504B1B885A1C91B24E4AEE
:1025B00011803A1D13804C4B1A884C4B9A4202D121
:1025C000494B4B4A1A80FB1D1B789B000133DB00F3
:1025D0008021C9005B181A1C3B1D1B881B0A9BB27B
:1025E000DBB2101C191CFFF7D7FBFB1D1B789B00EF
:1025F0000133DB00A022D2009B181A1C3B1D1B8854
:10260000DBB2101C191CFFF7C7FBFB1D1B789B00DE
:102610000133DB000133FF33181C0121FFF7BCFB42
:10262000C046FB1D1B789B000133DB000133FF33E9
:10263000181CFFF74FFB031C002BF2D1FB1D1B786E
:102640000122111C99400B1C9BB2DB439BB2294A0F
:10265000128892B213409BB29AB2264B1A80FB1C8E
:102660001A7801231A40FB1D1B78111C99400B1C82
:102670009AB2204B1B889BB213439BB29AB21D4B5C
:102680001A80FB1D1B780122111C99400B1C9BB268
:10269000DB439BB2184A128892B213409BB29AB2A3
:1026A000154B1A80FB1D1A78144B52000021D15291
:1026B000FB1D1B78124A0021D154C046FB1D1B781C
:1026C0009B000133DB00C02292009B18181CFFF70F
:1026D00001FB031C002BF1D0FB1D1B785BB2181C07
:1026E000BD4605B090BDC04628000010F0FF0000B8
:1026F00000C0FFFF70000010720000107400001096
:102700008400001080B582B000AF021CFB1D1A705F
:10271000FB1D1B78082B01D9FF2361E0FB1D1B78F3
:102720009B000133DB000133FF33181C1021FFF73E
:1027300033FBC046FB1D1B789B000133DB000133DC
:10274000FF33181CFFF7C6FA031C002BF2D1FB1D48
:102750001B789B000133DB00802189005B18181C6B
:102760001F21FFF719FBFB1D1B780122111C99404B
:102770000B1C9BB2DB439BB21C4A128892B21340E3
:102780009BB29AB2194B1A80FB1D1B780122111CB7
:1027900099400B1C9BB2DB439BB2154A128892B244
:1027A00013409BB29AB2124B1A80FB1D1A78114B40
:1027B00052000021D152FB1D1B780F4A0021D15439
:1027C000C046FB1D1B789B000133DB00C02292003A
:1027D0009B18181CFFF77EFA031C002BF1D1012374
:1027E0005BB2181CBD4602B080BDC0467000001030
:1027F00072000010740000108400001090B587B0C3
:1028000000AFB9607B603B1C0F33011C19703B1C8F
:102810000C331A803B1C173300221A703B1C1433F4
:1028200000221A803B1C0F331B78082B02D901238E
:102830005B425EE13B1C0F331B789B000133DB00E6
:10284000181CFFF747FA031C1A1C0F231340022B16
:1028500004D0042B02D005235B424AE1C0463B1C56
:102860000C331B88002B02D10E235B4241E17B68B5
:102870001B783B613B691A027B6801331B78D318D4
:102880003B613B691A027B6802331B78D3183B61BA
:102890003B691A027B6803331B78D3183B613B69A1
:1028A000002B02D10C235B4223E13B1C28331B8805
:1028B000002B02D10B235B421BE13B1C0F331B7827
:1028C0009B000133DB00C02292009B183C1C173494
:1028D000181CFFF7FFF9031C23703B1C17331B78F0
:1028E000422B07D03B1C17331B78222B02D0072327
:1028F0005B42FEE03B1C0F331B789B000133DB0087
:10290000C02212019B181A1C7B68101C191C04227F
:10291000FFF724FB3B1C0F331B789B000133DB00CC
:10292000802252019B181A1C3B1C28331B881B0A4F
:102930009BB2DBB2101C191CFFF72EFA3B1C0F33A5
:102940001B789B000133DB00882252019B181A1C64
:102950003B1C28331B88DBB2101C191CFFF71CFA28
:102960003B1C0F331B789B000133DB00F822520124
:102970009B18181CFFF7AEF9031C1A1C3B1C1433E0
:1029800092021A803A1C0C323B1C143312881B88AA
:102990009A4205D93B1C0C333A1C143212881A8017
:1029A0003C1C14343B1C0F331B78181CFFF754FBE2
:1029B000031C23803B1C0F331B789B000133DB007F
:1029C000C02292009B18181CFFF784F9031C002BEF
:1029D00002D104235B428CE0484B1B881A1C3B1C31
:1029E0000F331B781A410123134009D03A1C0C32D3
:1029F0003B1C143312881B889A4201D9002378E0CB
:102A00003A1C0C323B1C143312881B889A4219D88A
:102A1000C0463B1C0F331978BA683B1C0C331B882B
:102A2000081C111C1A1CFFF7F3FB3B1C0F331B780F
:102A30009B000133DB000133FF33181C2021FFF71B
:102A4000ABF906E03B1C0C333A1C0C3212881A809E
:102A5000A6E73B1C0F331B789B000133DB000133DF
:102A6000FF33181CFFF736F9031C002BF1D13B1C78
:102A70000F331B789B000133DB00802292009B18F0
:102A8000181CFFF727F9031C191C3B1C17331F22C6
:102A90000A401A703B1C17331A781023134011D0C8
:102AA0003B1C0F331B789B000133DB00802292001C
:102AB0009B18181C1021FFF76FF9C0463B1C0C3304
:102AC0001B8816E03B1C17331A78082313400FD0DD
:102AD0003B1C0F331B789B000133DB0080229200EC
:102AE0009B18181C0821FFF757F90D235B4200E0E3
:102AF000BDE7181CBD4607B090BDC0467000001071
:102B000090B589B000AFB9607B603B1C0F33011CEE
:102B100019703B1C0C331A803B1C1E3300221A8098
:102B20003B1C0F331B78082B02D901235B4200E2C8
:102B30003B1C0F331B789B000133DB003C1C1D3416
:102B4000181CFFF7C7F8031C23703B1C1D331A78B1
:102B50000F231340022B04D0042B02D005235B4229
:102B6000E7E1C0463B1C0C331B88002B02D10E232F
:102B70005B42DEE13B1C0F331A78B94B5200D35A4B
:102B8000002B33D13C1C1E343B1C0F331B78181C0C
:102B9000FFF7D0FA031C23803B1C0F331B789B00EC
:102BA0000133DB00C02292009B18181CFFF792F83B
:102BB000031C002B02D104235B42BAE1A94B1B8802
:102BC0001A1C3B1C0F331B781A410123134006D0FB
:102BD0003B1C1E331B88002B01D10023A9E13B1CA9
:102BE0001E331B88002B00D000E0CBE73B1C1D33BD
:102BF0001A7807231340022B03D0042B00D1A6E040
:102C000038E13B1C0F331A78954B5200D35A002BF6
:102C10006FD13B1C0F331A783B1C1433101C191C4A
:102C20000822FFF76DFB3B1C0F331B789B00013321
:102C3000DB000133FF33181C4021FFF7ADF8C0461D
:102C40003B1C0F331B789B000133DB000133FF3348
:102C5000181CFFF73FF8031C002BF1D13B1C143369
:102C60001A787B681A707B6801333A1C14325278E8
:102C70001A707B6802333A1C143292781A707B689F
:102C800003333A1C1432D2781A703B1C14331B796C
:102C90001A1C3B6B1A803B6B1B881B029AB23B1CB5
:102CA00014335B79D3189AB23B6B1A803B1C0F33F9
:102CB0001A783B1C14339B79191C694B5200D15272
:102CC0003B1C0F331A783B1C0F331978644B4900B7
:102CD000CB5A1B0299B23B1C1433DB79CB1899B247
:102CE0005F4B5200D1523B1C0F331B785E4A802150
:102CF000D1543B1C0F331A78594B5200D35A3A1C0B
:102D00000C3212889A4206D23B1C1E333A1C0C32FB
:102D100012881A8008E03B1C0F3319783B1C1E33C5
:102D20004F4A49008A5A1A803B1C0C333A1C1E3207
:102D300012881A803B1C0F331978BA683B1C1E336B
:102D40001B88081C111C1A1CFFF7DAFAA6E03B1CB2
:102D50000F331A78424B5200D35A002B58D13B1CE8
:102D60000F331A783B1C1433101C191C0222FFF776
:102D7000C7FA3B1C0F331B789B000133DB00013388
:102D8000FF33181C4021FFF707F8C0463B1C0F33E8
:102D90001B789B000133DB000133FF33181CFEF767
:102DA00099FF031C002BF1D13B1C0F331A783B1CFD
:102DB00014331B78191C2A4B5200D1523B1C0F3381
:102DC0001A783B1C0F331978254B4900CB5A1B024C
:102DD00099B23B1C14335B78CB1899B2204B52004C
:102DE000D1523B1C0F331A781D4B5200D25A1F4B45
:102DF0009A4207D93B1C0F331B78181CFFF782FC43
:102E00001B4B96E03B1C0F331B78174A8021D15493
:102E10003B1C0F331A78124B5200D35A3A1C0C3217
:102E200012889A4206D23B1C1E333A1C0C3212887E
:102E30001A8008E03B1C0F3319783B1C1E33084AEC
:102E400049008A5A1A803B1C0F331978BA683B1C18
:102E50001E331B88081C111C1A1CFFF751FA1DE0B9
:102E6000740000107000001084000010EA050000DB
:102E700017FCFFFF3B1C0F331A783B1C1E331B88CB
:102E8000101C191CFFF7B4FA3B1C0F331A782B4B9C
:102E90005200391C1E310988D152C0463B1C0F33E9
:102EA0001B789B000133DB000133FF33181C4021EA
:102EB000FEF772FFC0463B1C0F331B789B000133AB
:102EC000DB000133FF33181CFEF704FF031C002B4B
:102ED000F1D13B1C0F331A783B1C0F331978174B79
:102EE0004900C95A3B1C1E331B88CB1A99B2134B9D
:102EF0005200D1523B1C0F331A78104B5200D35A58
:102F0000002B0DD03B1C0F331B783A1C0F3212786C
:102F10000B498A5C01210A43D1B2094AD15405E028
:102F20003B1C0F331B78064A0021D1543B1C1E3337
:102F30001B88181CBD4609B090BDC0467400001027
:102F40008400001080B500AFBD4680BD80B500AFE5
:102F5000BD4680BD80B500AFBD4680BD80B500AF29
:102F6000BD4680BD80B582B000AF78607B681B78BD
:102F7000DBB2181CBD4602B080BDC04680B582B031
:102F800000AF78600A1CFB1C1A707B68FA1C127870
:102F90001A70BD4602B080BD80B500AF0023181C7A
:102FA000BD4680BD80B582B000AF021CFB1D1A700B
:102FB000BD4602B080BDC04680B582B000AF78602B
:102FC00039607B68002B02D03B68002B06D1084B90
:102FD000084A1A61064B084A5A6105E0044B7A68B0
:102FE0001A61034B3A685A61BD4602B080BDC046C3
:102FF0002C000010552F00005D2F000080B582B01E
:1030000000AF78603960C0460E4B1B881A1C8023C5
:103010009B001340F8D07B68002B02D03B68002B4C
:1030200006D1084B084A9A61064B084ADA6105E066
:10303000044B7A689A61034B3A68DA61BD4602B084
:1030400080BDC0462C000010992F0000A52F000065
:1030500090B587B000AF021C3960FB1D1A703B1C95
:10306000173300221A703B1C0C3300221A603B1CE1
:103070000C3300225A60FB1D1B780F2B00D9BDE0DA
:103080009A00634BD3181B689F4600F0C5F8B8E060
:103090003B68002B0BD03B1C0C333A681A603B1C7E
:1030A0000C331B681A1C08323B1C0C335A603B1C47
:1030B0000C331A683B1C0C335B68101C191C00F0A5
:1030C000FFF8031C9EE03B681B88181C00F0BAF94F
:1030D00097E000F0E1F9031C1A1C3B681A8090E0AD
:1030E0003B681B88181C00F00BFA8AE000F030FAED
:1030F000031C1A1C3B681A8083E03B681B881B0A70
:103100009BB2DBB298225201101C191CFEF744FE40
:103110003B681B88DBB2A0225201101C191CFEF771
:103120003BFE6EE098235B01181CFEF7D3FD031CE9
:103130001B029CB2A0235B01181CFEF7CBFD031CF5
:10314000E3189AB23B681A805BE0324B9A783B688E
:103150001A703B6801332F4AD2781A703B680233E9
:103160002C4A12791A703B6803332A4A52791A7032
:103170003B680433274A92791A703B680533002272
:103180001A703EE000F04EFA3BE03B68181C00F07D
:103190007DFA36E03B68181C00F0DEFA31E03B684F
:1031A0001B78181C00F02EFB031C2BE000F01CFA0F
:1031B000031C1A1C3B1C17331A703B1C17331B785B
:1031C000FF2B01D1FF231DE03B683A1C1732127818
:1031D0001A7016E000F0ECF9031C1A1C3B1C1733A4
:1031E0001A703B1C17331B78FF2B01D1FF2309E01A
:1031F0003B683A1C173212781A7002E0FF2301E094
:10320000C04600235BB2181CBD4607B090BDC04647
:10321000287B00002C00001080B586B000AF902302
:103220001A013B1D101C191C0622FEF719FE8023F3
:103230005A003B1C1433101C191C0422FEF710FE0C
:10324000A023DA003B1C1033101C191C0422FEF7CB
:1032500007FEF0231A013B1C0C33101C191C04221E
:10326000FEF7FEFD00208021FEF796FD0020FEF710
:1032700031FD90231A013B1D101C191C0622FEF77C
:103280006DFE80235A003B1C1433101C191C0422B1
:10329000FEF764FEA023DA003B1C1033101C191C3F
:1032A0000422FEF75BFEF0231A013B1C0C33101CBA
:1032B000191C0422FEF752FEBD4606B080BDC04672
:1032C00080B584B000AF786039603B1C0E330022BB
:1032D0001A70FFF7A1FF7B68002B54D03B1C0E3304
:1032E00000221A703B1C0F3300221A701DE03B1C99
:1032F0000F331B785BB27A68D3181A783B1C0E33F5
:103300001B78D318DAB23B1C0E331A703B1C0E33F9
:103310001B785BB2102B01DDFF238DE03B1C0F33CC
:103320001A783B1C0F3301321A703B1C0F331B7889
:103330005BB2072BDBDD3B1C0F3300221A701CE055
:103340003B1C0F331B785BB29B000133DB00F82280
:1033500052019B181A1C3B1C0F331B785BB2796817
:10336000CB181B78101C191CFEF716FD3B1C0F33E5
:103370001A783B1C0F3301321A703B1C0F331B7839
:103380005BB2072BDCDD3B68002B54D03B1C0E33BB
:1033900000221A703B1C0F3300221A701DE03B1CE8
:1033A0000F331B785BB23A68D3181A783B1C0E3384
:1033B0001B78D318DAB23B1C0E331A703B1C0E3349
:1033C0001B785BB2102B01DDFF2335E03B1C0F3374
:1033D0001A783B1C0F3301321A703B1C0F331B78D9
:1033E0005BB2072BDBDD3B1C0F3300221A701CE0A5
:1033F0003B1C0F331B785BB29B000133DB00F022D8
:1034000052019B181A1C3B1C0F331B785BB23968A6
:10341000CB181B78101C191CFEF7BEFC3B1C0F338D
:103420001A783B1C0F3301321A703B1C0F331B7888
:103430005BB2072BDCDD00235BB2181CBD4604B079
:1034400080BDC04680B584B000AF021CBB1D1A8091
:103450003B1C0F33BA1D12881A70BB1D1B881B0A38
:103460009AB23B1C0E331A703B1C0F331B780F2291
:103470009343DBB2A8225201101C191CFEF78CFCEE
:10348000B8235A013B1C0E331B78101C191CFEF785
:1034900083FCBD4604B080BD90B583B000AFFB1D7A
:1034A00000221A70BB1D00221A703B1D00221A80D8
:1034B000A8235B01181CFEF70DFC031C1A1CFB1D46
:1034C0000F218A431A70BC1DB8235B01181CFEF73C
:1034D00001FC031C23703B1DBA1D12781A803B1D92
:1034E0001B881B0299B2FB1D1B789AB23B1D8A18E0
:1034F0001A803B1D1B88181CBD4603B090BDC046FA
:1035000080B584B000AF021CBB1D1A803B1C0F337A
:10351000BA1D12881A70BB1D1B881B0A9AB23B1C6D
:103520000E331A70B0235A013B1C0F331B78101C4A
:10353000191CFEF731FCC0235A013B1C0E331B78CB
:10354000101C191CFEF728FCBD4604B080BDC04607
:1035500090B583B000AFFB1D00221A70BB1D002286
:103560001A703B1D00221A80FC1DB0235B01181C41
:10357000FEF7B0FB031C2370BC1DC0235B01181CAD
:10358000FEF7A8FB031C23703B1DBA1D12781A809E
:103590003B1D1B881B0299B2FB1D1B789AB23B1D79
:1035A0008A181A803B1D1B88181CBD4603B090BDAD
:1035B00080B582B000AFB8239B01181CFEF78AFBD0
:1035C000031C1A1C0123134003D0FB1D01221A7097
:1035D00002E0FB1D00221A70FB1D1B785BB2181C59
:1035E000BD4602B080BDC04680B582B000AFFB1DB5
:1035F00000221A70B8239B01181CFEF76BFB031CFA
:103600001A1C3023134003D0FB1D01221A7002E064
:10361000FB1D00221A70FB1D1B785BB2181CBD46F7
:1036200002B080BD90B583B000AFFC1DB8239B01F4
:10363000181CFEF74FFB031C2370FB1DFA1D1178AD
:103640007F220A401A70B8239A01FB1D1B78101CB8
:10365000191CFEF7A1FBFC1DB8239B01181CFEF7EB
:1036600039FB031C2370FB1DFA1D1278802149428F
:103670000A431A70B8239A01FB1D1B78101C191CF1
:10368000FEF78AFBBD4603B090BDC04680B584B04E
:1036900000AF78603B1C0F3300221A707B681B78E8
:1036A000012B08D13B1C0F333A1C0F3212784021FA
:1036B0000A431A7007E03B1C0F333A1C0F32127892
:1036C00040218A431A707B685B78012B08D13B1C30
:1036D0000F333A1C0F32127838210A431A702CE04B
:1036E0007B68DB78012B15D17B689B78012B08D197
:1036F0003B1C0F333A1C0F32127818210A431A7000
:103700001BE03B1C0F333A1C0F32127808210A438E
:103710001A7012E07B689B78012B08D13B1C0F3399
:103720003A1C0F32127810210A431A7005E03B1C34
:103730000F333A1C0F3212781A70B8239A013B1CCF
:103740000F331B78101C191CFEF726FBFFF76AFFCE
:10375000BD4604B080BDC04690B585B000AF78606E
:103760003B1C0F3300221A703C1C0F34B8239B0102
:10377000181CFEF7AFFA031C23703B1C0F331A789A
:10378000402313405A1E9341DBB21A1C7B681A7007
:103790003B1C0F331A7838231340202B01D0382BD1
:1037A00003D17B6801225A7003E07B6800225A70C3
:1037B000C0463B1C0F331A7838231340182B03D014
:1037C000202B01D0102B03D17B6801229A7003E0DB
:1037D0007B6800229A70C0463B1C0F331A7838234E
:1037E0001340182B03D0202B01D0082B03D17B686A
:1037F0000122DA7003E07B680022DA70C046BD4621
:1038000005B090BD90B585B000AF021CFB1D1A70CD
:103810003B1C0F3300221A703C1C0F34B8239B0151
:10382000181CFEF757FA031C23703B1C0F331A7841
:103830004023134001D1FF2345E03B1C0F333A1CCA
:103840000F32127838218A431A70FB1D1B78012B26
:1038500008D13B1C0F333A1C0F32127830210A4337
:103860001A7007E03B1C0F333A1C0F3212783821D4
:103870000A431A70B8239A013B1C0F331B78101CA3
:10388000191CFEF789FAFFF7CDFE3C1C0F34B82354
:103890009B01181CFEF71EFA031C2370FB1D1B78EE
:1038A000012B07D13B1C0F331A783023134009D06A
:1038B000002308E03B1C0F331A783823134001D053
:1038C000002300E0FF235BB2181CBD4605B090BD8D
:1038D00090B5A7B002AF3B1C8D3300221A703A1C82
:1038E0007432C14B111C1A1C0423081C111C1A1C15
:1038F00001F0FFFB3B1C8C3335221A703B1C8A33D2
:10390000BA4A1A803B1C8833802252001A803B1C22
:10391000863301221A803B1C843300221A803B1C10
:10392000823300221A803B1C803300221A803A1C0A
:103930006432AF4B111C1A1C0F23081C111C1A1CDB
:1039400001F0D7FB3B1C7E3301221A803B1C7C33E9
:1039500001221A803B1C8F3300221A703B1C8F33CC
:103960001B783A1C8F32591C11703A1C8A3212880B
:10397000120A92B2D1B23A1CD1543B1C8F331B783D
:103980003A1C8F32591C11703A1C8A321288D1B2FB
:103990003A1CD1543B1C8F331B783A1C8F32591C74
:1039A00011703A1C88321288120A92B2D1B23A1CB3
:1039B000D1543B1C8F331B783A1C8F32591C117029
:1039C0003A1C88321288D1B23A1CD1543B1C8F3336
:1039D0001B783A1C8F32591C11703A1C863212889F
:1039E000120A92B2D1B23A1CD1543B1C8F331B78CD
:1039F0003A1C8F32591C11703A1C86321288D1B28F
:103A00003A1CD1543B1C8F331B783A1C8F32591C03
:103A100011703A1C84321288120A92B2D1B23A1C46
:103A2000D1543B1C8F331B783A1C8F32591C1170B8
:103A30003A1C84321288D1B23A1CD1543B1C8F33C9
:103A40001B783A1C8F32591C11703A1C8232128832
:103A5000120A92B2D1B23A1CD1543B1C8F331B785C
:103A60003A1C8F32591C11703A1C82321288D1B222
:103A70003A1CD1543B1C8F331B783A1C8F32591C93
:103A800011703A1C80321288120A92B2D1B23A1CDA
:103A9000D1543B1C8F331B783A1C8F32591C117048
:103AA0003A1C80321288D1B23A1CD1543B1C8E335E
:103AB00000221A7015E03B1C8F331B783A1C8F32A2
:103AC000591C11703A1C8E321278391C6431895C91
:103AD0003A1CD1543B1C8E331A783B1C8E33013276
:103AE0001A703B1C8E331B780E2BE4D93B1C8F3392
:103AF0001B783A1C8F32591C11703A1C7E32128886
:103B0000120A92B2D1B23A1CD1543B1C8F331B78AB
:103B10003A1C8F32591C11703A1C7E321288D1B275
:103B20003A1CD1543B1C8F331B783A1C8F32591CE2
:103B300011703A1C7C321288120A92B2D1B23A1C2D
:103B4000D1543B1C8F331B783A1C8F32591C117097
:103B50003A1C7C321288D1B23A1CD1543B1C8D33B2
:103B60001C783B1C8D331B78181C0221002200237B
:103B7000FEF79AFC031C9C4207D13B1C8D331B783B
:103B80001C4A101C191C02F01DF83B1C74331B78D6
:103B9000191C3B1C74335B781A1C3B1C74339B78D8
:103BA000381C7430C078041C1348009402F00AF8E2
:103BB0003B1C8F331B789AB23B1C8C331B789CB216
:103BC0003B1C8D331878391C3B1C74330094FEF772
:103BD00015FE021C3B1C7B331A703B1C7B331B788D
:103BE000181CBD4625B090BDAC7B0000341200000F
:103BF000B07B0000687B00007C7B000090B587B044
:103C000002AF00F037FC00F053FB0020012100F070
:103C100023FB3B1C0C3300221A603B1C08330022A0
:103C20001A603B1D00221A603B1C00221A6000F043
:103C300045F900F0D1F93F4B0020191CFDF73CFF7E
:103C400007E03D4B181C01F0BDFF3C4B181C00F079
:103C5000B5F9FDF757FD031C042BF2D1384B181CA6
:103C600001F0B0FF0020002100F0F6FA0120012150
:103C700000F0F2FA3B1C0C33181CFDF7BBFF3B1C99
:103C80000833181CFDF7D2FF3B1D181CFDF7EAFF97
:103C90003B1C181CFEF702F82A4B181C01F092FF7F
:103CA0003B1C0C331B78191C3B1C0C335B781A1C17
:103CB0003B1C0C339B78381C0C30C078041C224809
:103CC000009401F07FFF3B1C08331B78191C3B1C40
:103CD00008335B781A1C3B1C08339B78381C08306F
:103CE000C078041C1948009401F06CFF3B1D1B7840
:103CF000191C3B1D5B781A1C3B1D9B78381DC07836
:103D0000041C1348009401F05DFF3B1C1B78191C38
:103D10003B1C5B781A1C3B1C9B78381CC078041C2D
:103D20000C48009401F04EFFFDF712FEFFF7D0FDA6
:103D3000FEE7C0469C000010C07B0000102700007A
:103D4000C47B0000C87B0000E07B0000F87B000023
:103D5000107C0000287C000010B5024B1B689847BF
:103D600010BDC046A008001010B5024B1B68984754
:103D700010BD00009C08001080B582B000AF7860D4
:103D80007B685B6802221A437B685A60BD4602B0BA
:103D900080BDC04680B584B000AFF860B9607A607D
:103DA0003B60FB681B68FF22191C91430A1CBB681F
:103DB0001A437B681A433B681A43FB681A60BD4686
:103DC00004B080BD80B582B000AF7860081C111CC3
:103DD0001A1CFB1C1870BB1C19707B1C1A70FB1C76
:103DE0001878BB1C1A787B1C19787B6840018218F4
:103DF000D154BD4602B080BD90B583B000AF7860AD
:103E0000FB1C1970BB1C1A70FB1C1A78FB1C197860
:103E10007B688020000109188900C958BB1C1B78E9
:103E20000120041C9C40231C19437B688020000156
:103E300012189200D150BD4603B090BD80B500AFBE
:103E40001D4B181C00210622822300F039FC1A4B5E
:103E5000181C00210822812300F032FC164B181C8C
:103E600000210922812300F02BFC134B181C002198
:103E70000222102300F024FCA023DB05181C0021E3
:103E80000222FFF7B9FFA023DB05181C0021022244
:103E90000123FFF797FFA023DB05181C0021032255
:103EA000FFF7AAFFA023DB05181C00210322012332
:103EB000FFF788FFBD4680BD0040044080B500AFDD
:103EC000FFF7BCFF0D4B181C00F072FF0B4B181CCA
:103ED000072100220023FFF75DFF084B181C01217A
:103EE00000F010FF054A064B101C191C00F024FFBF
:103EF000024B181CFFF740FFBD4680BD0000044088
:103F0000001BB70080B500AF00F0A8FABD4680BD29
:103F100080B582B000AF7860081C111C1A1CFB1C15
:103F20001870BB1C19707B1C1A70FB1C1878BB1C0A
:103F30001A787B1C19787B6840018218D154BD46E1
:103F400002B080BD80B500AFA023DB05181C0021A6
:103F500002220023FFF7DCFFBD4680BD80B500AF25
:103F6000A023DB05181C002102220123FFF7D0FF4C
:103F7000BD4680BD80B582B000AF064AFB1D101C57
:103F8000191C012200F00AFEFB1D1B78181CBD46FF
:103F900002B080BD0000044080B582B000AF021CBA
:103FA000FB1D1A70044AFB1D101C191C012200F095
:103FB0004BFDBD4602B080BD0000044080B582B01C
:103FC00000AF786002E07B68013B7B607B68002B80
:103FD000F9D1BD4602B080BD80B584B000AF3A1CB7
:103FE0001E4B111C1A1C1023081C111C1A1C01F05A
:103FF00080F8A023DB05181C002103220023FFF713
:1040000087FF174B181CFFF7D9FFA023DB05181CEF
:10401000002103220123FFF77BFF124B181CFFF73F
:10402000CDFF114A114B101C191CFEF7C5FF104A99
:10403000104B101C191CFEF7E1FF3B1C0120191C42
:10404000FFF706F8031C013304D10B4B181C01F0D9
:10405000B9FDFEE7BD4604B080BDC0465C7C0000F3
:104060008813000010270000453F00005D3F00005E
:10407000753F0000993F0000407C000080B582B091
:1040800000AF78607B6880221A63BD4602B080BDB5
:1040900080B582B000AF786039607B683A689A601A
:1040A000BD4602B080BDC04680B582B000AF78602A
:1040B00039607B683A68DA60BD4602B080BDC046B0
:1040C00080B582B000AF7860081C111C1A1CFB1C64
:1040D0001870BB1C19707B1C1A70FB1C1878BB1C59
:1040E0001A787B1C19787B6840018218D154BD4630
:1040F00002B080BD90B583B000AF7860FB1C197032
:10410000BB1C1A70FB1C1A78FB1C19787B6880207A
:10411000000109188900C958BB1C1B780120041C28
:104120009C40231C19437B688020000112189200D8
:10413000D150BD4603B090BD80B586B000AFF860E9
:10414000B9607A6000237B6109E0BA687B69D318A3
:104150001B78181C00F00CF87B6901337B617A68CE
:104160007B699A42F1D87B68181CBD4606B080BDB9
:1041700080B582B000AF021CFB1D1A70044AFB1D03
:10418000101C191C012200F04DFFBD4602B080BD7D
:104190000080004080B500AF144B181C0021122293
:1041A000012300F08DFA114B181C0021132201236A
:1041B00000F086FA0E4B181C00F0F0FE0C4AE123CA
:1041C0005B02101C191C00F057FF094B181C03213F
:1041D000FFF76AFF064B181C8121FFF759FF044BBC
:1041E000181CFFF74BFFBD4680BDC0460040044091
:1041F0000080004080B582B000AF00237B6021E0EA
:10420000134A7B68D3181A7812497B68CB181B783D
:10421000A021C905081C111C1A1CFFF76BFF0C4AD2
:104220007B68D3181A780B497B68CB181B78A021C0
:10423000C905081C111C1A1C0023FFF741FF7B68ED
:1042400001337B607B68022BDADDBD4602B080BDA6
:10425000E87C0000EC7C000080B582B000AF0A1C56
:10426000FB1D011C1970BB1D1A70FB1D1B78022B56
:1042700017D8FB1D1B780C4AD15CFB1D1B780B4A21
:10428000D25CBB1D1B78581E8341DBB2012043402A
:10429000DBB2181C01230340DBB2A020C005FFF7EE
:1042A0000FFFBD4602B080BDE87C0000EC7C000042
:1042B00080B500AFFFF76EFFA023DB05181C00F0F0
:1042C000F5F9FFF797FF00200021FFF7C5FF012058
:1042D0000021FFF7C1FF02200021FFF7BDFFBD460F
:1042E00080BDC04680B584B000AF021CFB1D1A70B3
:1042F000064B1B6903229343FB60044BFA1D1178A4
:10430000FA680A431A61BD4604B080BD00C003408C
:1043100080B582B000AF0A1CFB1D011C1970BB1DCB
:104320001A70074BFA1D11781F221140BA1D107820
:104330000322024052010A439A60BD4602B080BD8A
:104340000080044080B500AF044BDA6801231340BD
:104350005A1E9341DBB2181CBD4680BD008004404C
:1043600080B582B000AF7860024B7A689A67BD462C
:1043700002B080BD0080044090B583B000AF021C45
:10438000FB1D1A70074A07498023C958FB1D1B787B
:104390000120041C9C40231C19438023D150BD469E
:1043A00003B090BD0080044080B582B000AF2020F3
:1043B00000F04CFD00237B6002E07B6801337B60F2
:1043C0007B68FF2BF9DD012000F0A8F8802000F0C9
:1043D0001FFD03200121FFF79BFF802000F036FD29
:1043E000C046FFF7AFFF031C01225340DBB2002B96
:1043F000F7D10120FFF7B4FF0220FFF773FF03207E
:1044000000F0A2F8BD4602B080BDC04680B582B0C3
:1044100000AF1020FFF7B0FF00237B6013E00D4BCF
:104420007A689200D15C0B4A7B689B00D3185A785B
:1044300008487B689B00C3185B88074800F040F978
:104440007B6801337B607B68112BE8D9BD4602B0E5
:1044500080BDC046F07C00000040044080B500AF45
:10446000FFF7A2FFFFF7D2FF1A20FFF785FFBD4637
:1044700080BDC04680B500AF00F0EEF8021C024BD4
:104480001A60BD4680BDC046A408001080B500AFCC
:10449000024B1B68181CBD4680BDC046E47C000072
:1044A00080B500AF014B181CBD4680BD001BB70096
:1044B00080B584B000AF78607B685B09D9B23B1CE3
:1044C0000F330F220A401A707A681F231340BB6013
:1044D0003B1C0F331A78074B9200D258BB6801334C
:1044E0005B00101C191CFFF73FFC031C181CBD4689
:1044F00004B080BD387D000080B584B000AF786026
:1045000039607A681F2313400133FB603B68FA6807
:104510005343181CBD4604B080BDC04680B582B070
:1045200000AF021CFB1D1A70064BFA1D12781A64AC
:10453000044B00225A64034B01225A64BD4602B068
:1045400080BDC0460080044080B582B000AF021C30
:10455000FB1D1A70064BFA1D12781A67044B0022D5
:104560005A67034B01225A67BD4602B080BDC04660
:104570000080044080B500AF044B5B6A181CFFF755
:1045800097FF031C181CBD4680BDC0460080044038
:1045900080B582B000AF0D4B1B6CDBB21A1C03233D
:1045A000134002D0012B05D009E0FFF779FF031C6F
:1045B0007B6006E0FFF76AFF031C7B6001E00023DD
:1045C0007B607B68181CBD4602B080BD0080044043
:1045D00098B500AF064B9C68FFF7DAFF031C201C60
:1045E000191CFFF789FF031C181CBD4698BDC04667
:1045F0000080044080B582B000AF00237B60154B83
:104600001B6FDBB21A1C03231340012B0DD002DCFD
:10461000002B05D018E0022B0CD0032B0FD013E099
:10462000FFF73EFF031C7B600EE0FFF7B1FF031CAA
:104630007B6009E0FFF79EFF031C7B6004E0FFF74F
:10464000C7FF031C7B60C0467B68181CBD4602B0D8
:1046500080BDC0460080044080B500AFFFF7CAFFB0
:10466000021C054B9B6F101C191CFFF77DFB031CE4
:10467000181CBD4680BDC0460080044090B583B084
:1046800000AF021CFB1D1A70074A07498023C95856
:10469000FB1D1B780120041C9C40231C1943802314
:1046A000D150BD4603B090BD0080044080B582B0BB
:1046B00000AF78600620FFF7E1FFBD4602B080BD85
:1046C00080B584B000AFF8607B603B1C0B33197081
:1046D0003B1C0A331A703B1C0B331B78002B07D191
:1046E0003B1C0A331A78FB6892007968D15007E0C6
:1046F0003B1C0A331A78FB68183292007968D15053
:10470000BD4604B080BDC04690B583B000AF021C6A
:10471000FB1D1A70074B074A5268F91D09780120E2
:10472000041C8C40211CC9430A405A60BD4603B09A
:1047300090BDC0460080044090B583B000AF021C1D
:10474000FB1D1A70064B064A5168FA1D12780120AB
:10475000041C9440221C0A435A60BD4603B090BD1D
:104760000080044080B582B000AF021CFB1D1A70AF
:10477000FB1D1B78181CFFF7C7FFFB1D1B78181CBF
:10478000FFF7DAFFBD4602B080BDC04690B583B0EA
:1047900000AF021CFB1D1A70074A07498023C95845
:1047A000FB1D1B780120041C9C40231C1943802303
:1047B000D150BD4603B090BD0080044080B582B0AA
:1047C00000AF7860034A94237968D150BD4602B0A7
:1047D00080BDC0460080044080B500AF024A9423EB
:1047E000D358181CBD4680BD0080044080B582B0FF
:1047F00000AF7860034A9C237968D150BD4602B06F
:1048000080BDC0460080044080B500AF024A9C23B2
:10481000D358181CBD4680BD0080044080B582B0CE
:1048200000AF78600A1CFB1C1A707B68DB68FA1CFE
:10483000127813405A1E9341DBB2181CBD4602B0D9
:1048400080BDC04680B582B000AF78600A1CFB1CFA
:104850001A707B689B69FA1C127813405A1E9341A8
:10486000DBB2181CBD4602B080BDC04680B582B028
:1048700000AF78607B681B68DAB20F231340DBB2AD
:10488000181CBD4602B080BD80B582B000AF786014
:104890000A1CFB1C1A70FB1C1A787B681A62BD4646
:1048A00002B080BD80B582B000AF78607B689B6845
:1048B0009BB2181CBD4602B080BDC04680B582B018
:1048C00000AF78600A1CBB1C1A80BB1C1A887B686E
:1048D0009A60BD4602B080BD80B584B000AFF8607C
:1048E000B9607A603B60FB681B68FF22191C91432A
:1048F0000A1CBB681A437B681A433B681A43FB686F
:104900001A60BD4604B080BD80B582B000AF78604B
:1049100039607B685B680422191C91430A1C3B6860
:104920001A437B685A60BD4602B080BD80B584B032
:1049300000AF78607A68094B9A4204D13B1C0F3370
:104940000B221A7003E03B1C0F3312221A703B1C1F
:104950000F331B78181CBD4604B080BD0000044016
:1049600080B584B000AF78607A68094B9A4204D170
:104970003B1C0F3300221A7003E03B1C0F33022252
:104980001A703B1C0F331B78181CBD4604B080BD49
:104990000000044080B582B000AF786039607A686A
:1049A000074B9A4204D13B68181CFFF707FF03E04E
:1049B0003B68181CFFF71AFFBD4602B080BDC04619
:1049C0000000044080B584B000AF7860FFF712FEAD
:1049D000031CFB607A680D4B9A4209D1FFF7FCFE7D
:1049E000031CF868191CFFF7BFF9031CFB6008E003
:1049F000FFF70AFF031CF868191CFFF7B5F9031C41
:104A0000FB60FB68181CBD4604B080BD000004407C
:104A100080B586B000AFF860B9607A60FB681A684C
:104A2000084B13407B61BB681B021B041A0C7B699B
:104A30001A43FB681A60FB687A681A61BD4606B0C3
:104A400080BDC046FF00FFFF80B588B000AFF860B2
:104A5000B9607A600023FB610023BB6103E0FB685F
:104A6000181CFFF71FFFFB68181C0421FFF7D6FE78
:104A7000031C002BF3D1FB68181C0321FFF704FF74
:104A8000FB68181CFFF7F2FE031C072B3ED9BB681E
:104A90007B6132E0FB68181C0221FFF7BFFE031C9C
:104AA000012B10D1FA697B689A420CD27B691B8872
:104AB000FA68101C191CFFF701FF7B6902337B6148
:104AC000FB690233FB61FB68181C0121FFF7BAFE8A
:104AD000031C012B01D100235BE006E0FB68181CDE
:104AE000FFF7E0FEBB690233BB61FB68181C0421C1
:104AF000FFF794FE031C012BF0D0FA697B689A4201
:104B0000C8D3BA697B689A42C4D341E0BB683B61B1
:104B100036E0FB68181C0221FFF780FE031C012B06
:104B200010D1FA697B689A420CD23B691B78FA680B
:104B3000101C191CFFF7C2FE3B6901333B61FB6986
:104B40000133FB61FB68181C0121FFF77BFE031C8E
:104B5000012B01D100231CE006E0FB68181CFFF7C5
:104B6000A1FEBB690133BB61FB68181C0421FFF780
:104B700055FE031C012B03D1BA697B689A42ECD322
:104B8000FA697B689A42C4D3BA697B689A42C0D3F7
:104B9000FB69181CBD4608B080BDC04680B588B012
:104BA00000AFF860B9607A600023FB610023BB614D
:104BB00003E0FB68181CFFF775FEFB68181C042156
:104BC000FFF72CFE031C002BF3D1FB68181C0321FC
:104BD000FFF75AFEFB68181CFFF748FE031C072B63
:104BE00045D9BB687B6139E0FB68181C0221FFF7DF
:104BF00015FE031C012B0CD1BA697B689A4208D2BE
:104C0000FA683F4B101C191CFFF758FEBB690233B2
:104C1000BB61FB68181C0121FFF714FE031C012B6C
:104C200001D1002368E00DE0FB68181CFFF73AFE95
:104C3000031C1A1C7B691A807B6902337B61FB6948
:104C40000233FB61FB68181C0421FFF7E7FD031C1E
:104C5000012B03D1FA697B689A42E5D3BA697B6874
:104C60009A42C1D3FA697B689A42BDD343E0BB68DC
:104C70003B6138E0FB68181C0221FFF7CFFD031CE5
:104C8000012B0BD1BA697B689A4207D2FB68181CCA
:104C9000FF21FFF713FEBB690133BB61FB68181CE2
:104CA0000121FFF7CFFD031C012B01D1002323E0DD
:104CB0000DE0FB68181CFFF7F5FD031CDAB23B6939
:104CC0001A703B6901333B61FB690133FB61FB688F
:104CD000181C0421FFF7A2FD031C012B03D1FA6964
:104CE0007B689A42E5D3BA697B689A42C2D3FA6973
:104CF0007B689A42BED3FB69181CBD4608B080BDD4
:104D0000FFFF000080B582B000AF78600A1CFB1C7A
:104D10001A70FB1C1B78002B05D07B68181C002127
:104D2000FFF7F2FD04E07B68181C0421FFF7ECFD9F
:104D3000BD4602B080BDC04680B586B000AF786089
:104D400039607B68181CFFF73DFE031CBB60002325
:104D50007B6101235B423B610223FB6018E07B69BE
:104D60000133FA685343B868191CFEF7FDFF031CB2
:104D70003B613A693B689A420AD97B6901337B619E
:104D80007B69FF2B04D900237B61FB680233FB6046
:104D90003A693B689A42E2D879687A69FB68081CEC
:104DA000111C1A1CFFF734FEBD4606B080BDC0467C
:104DB00080B582B000AF78607B68181CFFF7B6FD45
:104DC000031C181CFFF7E2FC7B68181C0121FFF78D
:104DD000E1FD7B68181CFFF7C3FD031C181CFFF7DF
:104DE000C1FC7B68181C0021FFF78EFD7B68181C36
:104DF000072100220023FFF76FFD7A68034B101C88
:104E0000191CFFF799FFBD4602B080BDA0860100C6
:104E100080B584B000AF78600B4A8E239B00D258D7
:104E2000FF231340FB607A68FF231340FA681343A3
:104E3000FB60054AFB68ED21090219438E239B00A4
:104E4000D150BD4604B080BD0080044080B584B020
:104E500000AF78600C4A8E239B00D258FF2313408A
:104E6000FB607A68FF231340DA43FB681340FB6062
:104E7000054AFB68ED21090219438E239B00D1509E
:104E8000BD4604B080BDC0460080044090B583B0EC
:104E900000AF021CFB1D1A70074A07498023C9583E
:104EA000FB1D1B780120041C9C40231C19438023FC
:104EB000D150BD4603B090BD0080044080B582B0A3
:104EC00000AF7860034A98237968D150BD4602B09C
:104ED00080BDC0460080044080B582B000AF7860DD
:104EE0000A1CFB1C1A70FB1C1A787B681A60BD46F2
:104EF00002B080BD80B582B000AF786039607B6859
:104F00003A689A60BD4602B080BDC04680B582B0A6
:104F100000AF786039607B683A68DA60BD4602B0FD
:104F200080BDC04680B582B000AF78607B68DB682A
:104F300080221A437B68DA60BD4602B080BDC0465D
:104F400080B582B000AF78607B68DB688022191C76
:104F500091430A1C7B68DA60BD4602B080BDC04642
:104F600080B582B000AF7860FB1C1970BB1C1A7052
:104F7000FB1C1A787B681A60BB1C1A787B685A6025
:104F8000BD4602B080BDC04680B582B000AF78603B
:104F90007B685B69181CBD4602B080BD80B582B0DD
:104FA00000AF78600C20FFF771FF0120FFF786FF4C
:104FB0007B68181C0721FFF79DFF7B68181C0321E5
:104FC000FFF7A4FF7B6810229A62BD4602B080BD45
:104FD00080B586B000AFF860B9607A6000237B616D
:104FE000BB683B610CE03B691B78FA68101C191C1C
:104FF000FFF772FF3B6901333B617B6901337B61E2
:105000007A697B689A4207DAFB68181CFFF7BCFFD5
:10501000021C20231340E6D17B69181CBD4606B054
:1050200080BDC04680B588B000AFF860B9607A60D6
:105030000023FB61BB68BB6115E0F968BA697B6856
:10504000081C111C1A1CFFF7C3FF031C7B617A6844
:105050007B69D31A7B60FA697B69D318FB617B6932
:10506000BA69D318BB617B68002BE6DCFB69181CAE
:10507000BD4608B080BDC04680B586B000AF786040
:105080003960FFF7B7FA031C7B613B681B01786945
:10509000191CFEF769FE031C3B613B691B0AFB60A0
:1050A000FB681B023A69D31ABB607B68181CFFF7C8
:1050B00039FFBB68DAB2FB68DBB27968081C111CE7
:1050C0001A1CFFF74DFF7B68181CFFF739FF786942
:1050D0003969FEF749FE031C181CBD4606B080BDA9
:1050E00008B50020011C021C00F094FDFEF786FDAF
:1050F00008BD08B502F0C5FC08BD08B502F0D7FC34
:1051000008BD41180B78342B01DC00201CE0352B46
:1051100006D10B1C01331A78302AFBD0002AF4D0B8
:105120000B1C013B1A78392A02D130221A70F8E799
:1051300001321A700378302BE7D00B1A03D40B78A6
:1051400001398B70F9E70120704770B5051C0C1C04
:105150008E1FB4420CD0281C0A21FEF7FDFD0A2345
:105160005B4243433035ED18013C6570051CF0E7A8
:1051700070BD0000000000000EB410B591B013AB7C
:1051800004CB041C0021282206A80593FFF7B5FFD5
:105190000A230993124B059A0893139B01920093DB
:1051A000104B06A802930D4B0B4A069400F084FDA9
:1051B000089B041C013B0893002B03DB069A002389
:1051C000137003E0002006A901F08CFC201C11B034
:1051D00010BC08BC03B01847FFFFFFFFFFFFFF7FB5
:1051E000FFFFFF7FE9510000F0B50E684C68A5B0E5
:1051F00007920A93321C231C0C920D930B900D986E
:1052000043005B0D0F930F9D994B9D422AD10203E2
:10521000079C051C0C980023120BE37002436E23BD
:10522000002A14D16922637066232270A370002DB6
:1052300003DA904B2A9C236011E00A9DAD0704D449
:105240000A9C640708D58C4B07E08C4B05E0079C53
:10525000612223706270A370894B2A9D2B6003200A
:1052600000F080FC0B9D20239D432B1C0025412B2F
:1052700000D15AE2301C211C704B6F4A02F03AFBFD
:10528000A84205D08020000601252418109500E0D2
:105290001090301C211C694B674A02F00FFB00285C
:1052A00000D021E217AA211C301C01F02DFD179C13
:1052B000189019912E20FF30604372494018FA214E
:1052C0008900FEF749FD021B08905D485D4901F029
:1052D0005BFD089C22902391002C05DA5A4A5B4B17
:1052E00064421E921F9307E0089D594A594B1E9233
:1052F0001F93002D16D02C1CE00709D52298239966
:105300001E9A1F9B01F070FF22902391012C09D05F
:105310001E981F991E9A1F9B01F066FF64101E9035
:105320001F91E9E718981999229A239B02F020F817
:105330001A901B911A981B99474A484B02F0DAFAC7
:10534000002813D01A981B99454A464B01F04CFF90
:10535000434A444B089C1A901B9122982399013C84
:10536000089402F005F822902391E3E71A981B991C
:105370003D4A3E4B02F036FB002813D01A981B9989
:10538000374A384B01F0F4FF354A364B089D1A90E6
:105390001B91229823990135089501F025FF229051
:1053A0002391E3E71A981B9902F02AFA089C0990C6
:1053B00063421194002C00DA1193099802F073FAF9
:1053C000179B089DEA1A01F0DFFC1C4B1A4A1A9041
:1053D0001B911C921D93002D56DA1B481B491E90F1
:1053E0001F91209221931E9E1F9F1E981F99002699
:1053F000321C3B1C02F06CF8209C219D021C0B1CF3
:10540000201C291C02F058F9114A124B20902191BE
:105410001E961F971E981F9901F0E6FE021C0B1C9A
:105420000748084902F054F8094A0A4B01F0A0FF66
:105430002090219132E0C0460000000000000000F2
:10544000000000000000F03F9A9999999999C93F8E
:10545000000000000000144000000000006AF84056
:1054600000000000000024400000000080842E4165
:10547000FF070000AA7D00007A7D0000787D000013
:10548000F87D000084EAFFFF089CC449C2481E90D2
:105490001F9120922193002C00D17FE0119D0E9549
:1054A0000E9CE40743D51A981B99209A219B1C9CBB
:1054B0001D9D129413951E9C1F9D209E219F01F0FF
:1054C00093FE321C149015913B1C201C291C02F0E9
:1054D000F3F8021C0B1C1298139901F085FE021CB4
:1054E0000B1C1498159902F0E7F81C901D911A985E
:1054F0001B991E9A1F9B01F077FE1A901B911A9E12
:105500001B9F1A981B990026321C3B1C01F0E0FFE0
:105510001C9C1D9D021C0B1C201C291C02F0CCF89D
:105520000E9D1C901D911A961B97012D36D0209E22
:10553000219F1E9A1F9B101C191C209C219D02F06C
:10554000BBF8221C2B1C02F0B7F8021C0B1C301CF1
:10555000391C01F049FE209021911E981F991E9A36
:105560001F9B01F041FE1E901F911E9E1F9F1E98C3
:105570001F990026321C3B1C01F0AAFF209C219D94
:10558000021C0B1C201C291C02F096F80E9C20907B
:10559000219164101E961F970E9481E71A981B990B
:1055A000189A199B02F0E2F9002803D1099D013DE8
:1055B000099502E7189819991A9A1B9B01F088FF20
:1055C00018901991189819991C9A1D9B01F080FF49
:1055D0001890199118981999229A239B01F0C8FEE6
:1055E0006F4A704B189019911898199901F0FCFDA9
:1055F000189019911898199902F002F9189E199F9C
:10560000041C02F050F9021C0B1C301C391C01F068
:105610005FFF634A634B01F0E7FD189019911898FA
:10562000199902F0EDF8061C002E03DA5E48013CE1
:105630003618F9E75D4B9E4203DD5D49013476186B
:10564000F8E7002C05DA099D574A013DA418099591
:10565000F7E79C4205DD099D554801352418099559
:10566000F7E7099D534B9D4219DC201C5249FEF778
:1056700073FB099B0A277B43051C1B184E49301CF2
:105680000993FEF769FB4D4B5D43434364197C432B
:10569000089DF3183E1C24185E43013D22E0434B55
:1056A0000998984226DD0A21FEF756FB0A277F4219
:1056B000031C7B43EB183C4D09906B43E318181C0B
:1056C0000A210E93FEF748FB041C381C60430E9918
:1056D00008186843301805300A21FEF73DFB089D85
:1056E000061C0135089505E0052300265B4208935A
:1056F000341C099607983025011C0570063109985D
:10570000FFF723FD0799201C0C31FFF71EFD0799B9
:10571000301C1231FFF719FD079C0023E574089D2A
:1057200023750535109CAD002543E80701D5244BB2
:105730000AE00A9CA40704D40A9C640703D5214B01
:1057400002E0214B00E0214B2A9C2B98236001238F
:105750009D43EB179B0F0B995D19AD1004686129F0
:1057600011D007DC452900D188E0472967D04129BD
:1057700063D108E00B9A662A00D108E1672A5ED05F
:10578000652A5AD17AE00D9B0F9D1803000B002D5E
:1057900020D00F496B1822E00000000000001440E8
:1057A0000000000080842E4140420F003F420F0065
:1057B000C0BDF0FF9F860100A08601006079FEFF5A
:1057C000AA7D00007A7D0000787D0000F87D000051
:1057D00001FCFFFF0C9A0F9B024300D0C64B002C2C
:1057E00010D10A9D2D070DD40B9C612C01D1C3490A
:1057F00000E0C3490F9A501E824130320798FFF7EC
:10580000BBFC11E00B9D612D01D1BE4900E0BE49FA
:105810000F9A0190551EAA410C9D029330320095BB
:105820000798231CFFF7A8FC0D99002901DBB74B53
:1058300000E0B74B2A9C236094E167200B900A9903
:1058400080231B0119430A91002C02DC2B9C0123AD
:1058500023602B9C12212368112B00DC591C079814
:10586000FFF74FFC2B9C2D1823689D4200DA88E03F
:105870002B9C013B23600B9C023C0B942B9C2368CC
:10588000112B05DD2D9C113B23602B9C11232360E4
:105890002B98802600680A99041C360102340E40B9
:1058A00004D10798211CFFF72CFC2D18079A2B9880
:1058B000537813700368002B03D1964B0A99194251
:1058C00003D0079A2E23537000E001242D9803681B
:1058D000002B03DD07993E230B550134002E10D019
:1058E0000A9A12070DD407980319013B1B78302B35
:1058F00001D1013CF7E73E2BFBD02E3B5A425341EE
:10590000E41A0B9A0799631C0A550234002D04DA35
:105910002D226D42261CCA5403E007982B22261C18
:10592000C2547D4B9D420CDDFA21281C8900FEF7F4
:1059300013FA0799031C30330B55784B661C5843F8
:105940002D18632D0CDD281C6421FEF705FA079C39
:10595000031C3033A35564235B42584301362D1892
:10596000281C0A21FEF7F8F90A225242031C504370
:10597000079C30333035A3552818A3195870B01C34
:10598000F0E0281D00DA73E7EA439B1823602B9CA4
:10599000802322681B01002D51DA6E42511C8E4279
:1059A00009DD079D30232B702E236B7020682D9C02
:1059B000206002243BE05219941C122C03DD2D9C24
:1059C000113A226013240A9818420CD10798211C1E
:1059D000FFF797FB002806D0EE430134002E02D1DA
:1059E000079D6B780DE0079D2B19012E0DD1079DAA
:1059F0005A1B002A03DD1A78013B9A70F7E701343D
:105A000030232B702E236B7011E0079D5A1B002A48
:105A100003DD1A78013BDA70F7E730232B702E2371
:105A20006B703C23AB702C9D013E02342E602D9D8B
:105A30002B68002B75DD079D3E232B5527E0AE1804
:105A4000B41C122C41DD0A981324184207D1079880
:105A5000211CFFF756FB002801D001351424621EDB
:105A6000079B954215DA5A7807991A7001335A1A2A
:105A7000AA42F8DD4B192E225A702B9A2D9B1268E0
:105A8000AD18113D1D60002D4BD03E230B55013448
:105A900047E05978079819700133191A9142F8DBD9
:105AA00003192D1B2C99013B3C2202351A700D6005
:105AB0002E222B9D02552A68631C002A30D02D9D72
:105AC00002342A603E22C2542BE00A98184207D1C1
:105AD0000798211CFFF715FB002801D00135F41CA5
